:020000040800F2
:10000000F81C0020D5020008DD020008DF0200080D
:10001000E1020008E3020008E50200080000000019
:10002000000000000000000000000000E7020008DF
:10003000E902000800000000EB020008ED020008E1
:10004000EF020008EF020008EF020008EF020008CC
:10005000EF020008EF020008EF020008EF020008BC
:10006000EF020008EF020008EF020008EF020008AC
:10007000EF020008EF020008EF020008EF0200089C
:10008000EF020008EF0200084F160008EF02000818
:10009000EF020008EF020008EF020008EF0200087C
:1000A000EF020008EF020008EF020008351F000809
:1000B000EF020008811F0008EF020008EF020008AD
:1000C000EF020008EF020008EF020008EF0200084C
:1000D000EF020008EF020008EF0200089D2100086F
:1000E000EF020008EF020008EF020008EF0200082C
:1000F000EF020008EF020008EF020008EF0200081C
:1001000000000000EF020008EF020008EF02000804
:100110000000000000000000EF020008EF020008ED
:10012000EF020008EF020008EF020008EF020008EB
:10013000EF020008EF020008EF020008EF020008DB
:10014000EF020008EF020008EF020008EF020008CB
:10015000EF020008EF020008EF020008EF020008BB
:10016000EF020008EF02000800000000000000009D
:10017000000000000000000000000000000000007F
:10018000EF020008EF02000800000000000000007D
:10019000EF020008EF02000800000000000000006D
:1001A000000000000000000000000000000000004F
:1001B000EF0200080000000000000000EF0200084D
:1001C000EF02000800F002F800F075F80AA090E8CD
:1001D000000C82448344AAF10107DA4501D100F002
:1001E0006AF8AFF2090EBAE80F0013F0010F18BF5A
:1001F000FB1A43F0010318471C4400003C44000074
:100200000A444FF0000C10F8013B13F0070408BF3C
:1002100010F8014B1D1108BF10F8015B641E05D0DA
:1002200010F8016B641E01F8016BF9D113F0080F8F
:100230001EBF10F8014BAD1C0C1B09D16D1E58BF21
:1002400001F801CBFAD505E014F8016B01F8016B58
:100250006D1EF9D59142D6D37047000000230024CB
:1002600000250026103A28BF78C1FBD8520728BFC6
:1002700030C148BF0B607047662904F020816429B3
:1002800000F0A480782900F0DD80632900F0478425
:10029000732900F04C84002070471FB504F005F965
:1002A00000F05CFC04000020002103F0DBFDE060B6
:1002B0001FBD10B510BD00F069FD1146FFF7EDFF41
:1002C00003F028F800F087FD03B4FFF7F2FF03BC4A
:1002D00000F0CAFD0948804709480047FEE7FEE7ED
:1002E000FEE7FEE7FEE7FEE7FEE7FEE7FEE7FEE7E6
:1002F00004480549054A064B70470000CD1E00081A
:10030000C5010008F8160020F81C0020F81800208D
:10031000F81800200FB4044910B503AA029800F0A1
:100320000BFC10BC5DF814FB8812002070B504466D
:1003300085690068C10601D5302600E02026C00787
:1003400007D070BDD4E9012130469047206A401C97
:1003500020626D1EF6D570BD70B5044685690078C3
:10036000C00707D170BDD4E9012120209047206A41
:10037000401C20626D1EF6D570BD70B50C4605465A
:10038000012A05D02878800600D5EA69002302E01A
:10039000012305E05B1C934202D2E05C0028F9D106
:1003A000A869E618C01AA861286A18442862284675
:1003B000FFF7BCFF04E0D5E9012114F8010B9047D9
:1003C000B442F8D32846FFF7C7FF70BD2DE9F041CE
:1003D0000646002410687529314616A510D0AFF3E3
:1003E0000080002802DA404213A507E031688A073E
:1003F00001D512A502E0490704D511A5012401E0A9
:10040000AFF3008000210A2206F1240709E0B0FBC7
:10041000F2FCB0FBF2F302FB1C00303078541846BB
:10042000491C0028F3D123462A463046BDE8F04156
:1004300000F005B9000000002D0000002B000000B6
:100440002000000070B504460D4621461068AFF349
:1004500000802188090502D50F4A7A4402E00E4A3D
:100460007A440E32002104F1240305E000F00F0667
:100470000009965D5E54491C0028F7D120780023BE
:10048000000704D5702D02D009B102231132204695
:10049000BDE8704000F0D3B8E64000002DE9F05F01
:1004A000894604464FF0000ADFF824B1FB44C0F847
:1004B00020A02046E168884700287DD0252806D066
:1004C000D4E901219047206A401C2062F1E7002511
:1004D0005F462046E16888472028064607DB312E24
:1004E00005D2B81910F8200C08B10543F1E7A807A8
:1004F00001D525F00405C4F81CA00027C4F818A0F5
:100500002A2E09D0304602F003F838B304EB8708EE
:10051000303EC8F8186019E059F8041B204604EB77
:1005200087029161E1688847012F064618D1E0698A
:10053000002820DA25F020051DE0D8F8180000EB8F
:10054000800006EB40003038C8F818002046E1680B
:100550008847064601F0DCFF0028EED1012F0AD0C3
:100560002E2E08D12046E16888477F1C0646022FC0
:1005700045F02005C4DBA069002803DA404245F0BD
:100580000105A061E80701D025F01005A6B1A6F18C
:100590004100192802D8203645F400654A46314604
:1005A000204625604D46FFF767FE60B1012807D061
:1005B000ED1D25F0070000E007E000F1080978E7ED
:1005C00005F1040975E730467AE7206ABDE8F09F37
:1005D000BC40000010B5203AC0F00B80B1E81850C4
:1005E000203AA0E81850B1E81850A0E81850BFF41D
:1005F000F5AF5FEA027C24BFB1E81850A0E81850BC
:1006000044BF18C918C0BDE810405FEA827C24BF0F
:1006100051F8043B40F8043B08BF7047D20728BF9D
:1006200031F8023B48BF11F8012B28BF20F8023BEC
:1006300048BF00F8012B70477047704770472DE99D
:10064000F0470D4699469246044600F12408016899
:10065000880604D5E06921F01001216000E0012046
:10066000A84201DD471B00E00027A1697A1902EBCF
:100670000900081AA0612078C00602D42046FFF7BE
:1006800055FE002608E0D4E901211AF8060090473B
:10069000206A401C761C20624E45F4DB2078C006A0
:1006A0000AD52046FFF742FE06E0D4E901213020BA
:1006B0009047206A401C2062381EA7F10107F4DC35
:1006C00007E0D4E9012118F805009047206A401C92
:1006D0002062281EA5F10105F3DC2046FFF73CFE51
:1006E0002078000602D50220BDE8F0870120FBE754
:1006F00070472DE9FF4F0C461E464FF0FF378BB079
:10070000D2E90001DDF860800A908A46C1F30A55FB
:1007100005B93D46002108464FF00000BAF1000F30
:1007200000F4400005DA00EB80004FF4400101EADC
:1007300050004FEA9059B9F1010F00DDB9460A980F
:1007400050EA4A000ED044F61050A5F2FF3545435A
:100750002F14B8F1000F1ED07542291E1EDDC9F1FD
:1007600000021CE0B8F1010F4FF0000001D0302171
:1007700003E0F24305E02154401CB042FBDB30466D
:100780000022002121540B99C1F80880C1E9002002
:100790000FB0BDE8F08FBD1B6D1CDEE74A4600DAE6
:1007A000694206A800F07CFA06AB93E8070003ABA9
:1007B00083E8070050460A9900F05DFB8DE80700CA
:1007C000A0F500501F3800900398002D09DD42F27B
:1007D0001F014A46084403A90390684600F0BCFD87
:1007E00008E0A0F500504A461F3803A90390684668
:1007F00000F0C6FD8DE807000004000C03D04FF0A8
:10080000FF30410800E01046B8F1000F03D000228D
:10081000009215461EE0751E05D400F0A3F9303293
:1008200062556D1EF9D5B3460122084302D000225D
:100830007F1C04E02078302801D100227F1E002A8E
:10084000099786D01DE0112D07DA00F08BF93032C0
:1008500062556D1C50EA0102F5D1084302D00098A0
:10086000C8B10EE00021681E05E0235C625C6354A1
:100870002254401E491C8142F7DBAB46A81B401E98
:100880000990002004F80B000B98099AC0F8088022
:10089000C0E9002B7CE711264FF0000859E72DE94D
:1008A000F04F88460446D21D22F0070191B0D1E9ED
:1008B0000001CDE90A0101F013FE02460B98C00FBA
:1008C00001D02D2007E02068810701D52B2002E010
:1008D000202101EAC000032A099001D0072A05DB84
:1008E00003464146204600F09BF90BE12078800644
:1008F00001D5E06900E00620B8F1650F814606D019
:10090000B8F1660F18D0B8F1670F70D131E0002050
:10091000B9F1110F009001DB112301E009F101038E
:100920000AAA01A90CA8FFF7E4FEDDE90C70002675
:1009300009F10105834647E001204B4600904FF046
:1009400000470AAA01A90CA8FFF7D3FEDDE90DB004
:100950000C995D46002610B909F101000D18B9EB9C
:10096000050003D4C0F1FF3609F10105A5EB09002C
:100970002BE0B9F1010F01DA4FF001090020B9F1C4
:10098000110F0090484601DD112300E003460AAA3A
:1009900001A90CA8FFF7ADFEDDE90C704D4600265D
:1009A0008346207800070AD4AB4500DA5D4601A8EB
:1009B000012D04DD411911F8011C302907D04F45E4
:1009C00002DA17F1040F04DA012082460FE06D1EEF
:1009D000EEE7002F02DCED1B3E4403E0781CA8424A
:1009E00000DD7D1CB81B00F1010A4FF000472078A4
:1009F000000703D4AA4501DB4FF0FF3A0021B7F10D
:100A0000004F0DF143088DF8431024D002202B2312
:100A1000002F01DA7F422D230A21021EA0F10100DE
:100A200000DC5FB197FBF1FC97FBF1F201FB1C7C52
:100A300017460CF1300C08F801CDEEE7A8F10100E3
:100A400003702188090501D5452100E06521A0F149
:100A5000010800F8011C09980FA9A1EB0807FF1D68
:100A600000B10120411901EBEA70A1693844081A6C
:100A7000401EA0612078C00602D42046FFF756FC35
:100A8000099828B1D4E901219047206A401C2062CE
:100A90002078C00622D52046FFF748FC1EE0002E35
:100AA00004DBB34502DD01A8805D00E03020D4E91D
:100AB00001219047206A401C2062761CAAF10100A7
:100AC0005FEA000A0AD100F049F8C0680168405C9A
:100AD000D4E901219047206A401C2062281EA5F11C
:100AE0000105DCDC07E0D4E9012118F8010B90478F
:100AF000206A401C2062381EA7F10107F3DC204663
:100B0000FFF72AFC032011B043E610B5436913B187
:100B1000AFF3008001E0FFF730FC012010BD127838
:100B200000F124010A7000224A700122EDE71168E9
:100B30004FF0FF32E9E70000074B70B50D467B44EC
:100B400000F05BF80446284600F018F910B14FF0A9
:100B5000FF3070BD204670BDFF1F00000048704789
:100B6000B816002030B5B0F10A024FEA900E71F1CC
:100B700000034EEA817EB0EB0E0061EB91014FEA7B
:100B8000101E4EEA017E10EB0E0041EB11114FEAF0
:100B9000102E4EEA016E10EB0E0041EB11214FEAD0
:100BA000104E4EEA014E10EB0E0041EB1141401881
:100BB00041F100014FEAD00040EA41704FEAD10113
:100BC00010EB80054FEA810444EA907444EB010481
:100BD0006D1944EB0404521BA3414FF0000348BFBE
:100BE0000A3200D530BD401C41F1000130BD00008B
:100BF00001694A1C02610878704700B58FB0CDE9E1
:100C000001310021059105497944CDE903101146D0
:100C10006846FFF743FC0FB000BD0000E5FFFFFF93
:100C20002DE9F0411F46044603260168072A01F416
:100C3000006004DB08B116A505E016A503E008B1C5
:100C400015A500E015A521F010002060A069C01EC8
:100C5000A0610FB1401EA0612046FFF767FB4FB1B6
:100C6000D4E9012138469047206A401C2062C01C0C
:100C7000206206E0206AFAE7D4E9012115F8010BA9
:100C80009047761EF8D22046FFF766FBBDE8F0815C
:100C90004E414E006E616E00494E4600696E660020
:100CA0002DE9F047814616468AB0334878440DC88E
:100CB0008DE80D0030487844801C03AC0DC884E8F2
:100CC0000D0041F69B300844372190FBF1F290FB78
:100CD000F1F5A5F1800501FB12041B3C02D564422D
:100CE000012000E00020DFF890A080460027FA44B1
:100CF000AAF1BE0A0DE0E00709D03246684607EBCC
:100D000047010AEB810100F03BFB8DE8070064100E
:100D10007F1C002CEFD1184F7F44AC3F18E0E80750
:100D200014D007EB04100DF1180A90E80E008AE8C1
:100D30000E00C068F04201D198190890324606A909
:100D400003A800F01DFB03AB83E807006D10641CD3
:100D5000002DE4D132466946B8F1000F03A802D055
:100D600000F0FAFA01E000F00BFBC9E90001C9F854
:100D700008200AB0BDE8F0874C390000007B00F085
:100D80008000704700487047981600207546FFF7AE
:100D9000F9FFAE4605006946534620F00700854638
:100DA00018B020B5FFF7A4FABDE820404FF00006C8
:100DB0004FF000074FF000084FF0000B21F0070143
:100DC000AC46ACE8C009ACE8C009ACE8C009ACE886
:100DD000C0098D46704710B50446AFF30080204629
:100DE000BDE81040FFF770BA4FF0013C50F8042BFB
:100DF00051F8043B9A4221D1A2EB0C03934313EA2E
:100E0000CC1317D150F8042B51F8043B9A4215D15A
:100E1000A2EB0C03934313EACC130BD150F8042B31
:100E200051F8043B9A4209D1A2EB0C03934313EA15
:100E3000CC13DBD04FF00000704700BFD01A01BACE
:100E4000B1FA81F101F0180122FA01F0CB40C1F1B1
:100E50002001DBB2C0B2C01A2CFA01F3D11A9143BF
:100E600011EAC311E6D1704701491820ABBEFEE775
:100E70002600020070475FEA400C08BF91F0000FA7
:100E80004FEA8C234FEAC12243EA51514FEA1C50EA
:100E900018BF00F5F0404FEA300018BF41F00041A4
:100EA0005FEA6C5C00F02980BCF1FF3F08BF40F0B6
:100EB00080407047130C06BF12044FF0100C4FF027
:100EC000000C130E04BF12020CF1080C130F04BF28
:100ED00012010CF1040C930F04BF92000CF1020CF0
:100EE000D30F04BF52000CF1010C11464FF0000269
:100EF000A0F11F00A0EB0C00704711F0004F08BFDD
:100F0000704731F000413FF4D5AF0B0C06BF090428
:100F10004FF0100C4FF0000C0B0E04BF09020CF147
:100F2000080C0B0F04BF09010CF1040C8B0F04BF5C
:100F300089000CF1020CCB0F04BF49000CF1010C2D
:100F4000CCF12003A0EB0C0022FA03F302FA0CF21E
:100F500041EA030100F10100704720F07F4C80EA74
:100F6000030023F07F47ACEB070303F57C5300F04D
:100F7000004003F1FF032DE980494FEA154B09B406
:100F80004FEA144325EA0B4E24EA03480FF20426E5
:100F900006EB132749083E785FEA320203FB066737
:100FA000C7F5000707FB06F64FEA54374FEAD64667
:100FB00006F1020607FB066CCCF1005C4FEA1C4709
:100FC0002CEA074C07FB06F40CFB06F504EB154670
:100FD0004FEA961634BF00204FF000404FEAD13759
:100FE00006FB07FC4FEA1C4C0CFB0BF7D21B03FB68
:100FF0000CF761EB07010CFB0EF7B0EB074072EB4F
:1010000017420CFB08F734BFA2EB0742B2EB0742D2
:1010100061EB17414FEA0C444FEA910706FB07FCCE
:101020004FEA1C4C0CFB0BF7B0EBC74072EB57328E
:1010300003FB0CF734BFA2EBC742B2EBC74261EB34
:1010400057310CFB0EF7B0EBC70072EB57720CFB7D
:1010500008F734BFA2EBC702B2EBC70261EB5771CE
:10106000039F4FEA816141EA921104EBCC044FEAFD
:10107000D1374FEA826206FB07FC42EA90124FEA40
:1010800080604FEA1C4C0CFB0BF7D21B03FB0CF7E8
:1010900061EB07010CFB0EF7B0EB074072EB174258
:1010A0000CFB08F734BFA2EB0742B2EB074261EB3F
:1010B00017414FEA8C554FEA910704EB9C2406FB3D
:1010C00007FC4FEA1C4C0CFB0BF7B0EBC74072EB74
:1010D000573203FB0CF734BFA2EBC742B2EBC74257
:1010E00061EB57310CFB0EF7B0EBC70072EB577298
:1010F0000CFB08F734BFA2EBC702B2EBC70261EBEF
:10110000577115EB4C254FEA816141EA92114FEA84
:1011100082624FEAD13742EA901206FB07FC44F1A3
:1011200000044FEA80604FEA1C4C0CFB0BF7D21B0B
:1011300003FB0CF761EB07010CFB0EF7B0EB07406C
:1011400072EB17420CFB08F734BFA2EB0742B2EB7D
:10115000074261EB174115EB1C154FEA813141EA5B
:1011600092414FEA823242EA90424FEA80304FEA9F
:101170000C7644F1000448EA03434EEA0B484FF072
:10118000000EB2EB080C71EB030724BF6246394630
:101190004EEB0E0E4FF0000B0018524149414BEB45
:1011A0000B0BB2EB080C71EB03077BF1000B24BFB8
:1011B000624639464EEB0E0E4FF0000B00185241BE
:1011C00049414BEB0B0BB2EB080C71EB03077BF1C6
:1011D000000B24BF624639464EEB0E0E51EA020761
:1011E00018BF46F0010616EB0E7655F1000254F1D9
:1011F000000103D5BDE88901BDE80088BDE889018B
:10120000BDE80048B619524141EB0101A3F10103C9
:10121000704780807F7E7D7C7B7A79787776767563
:101220007473727171706F6E6E6D6C6C6B6A6A69DB
:101230006868676666656464636362616160605F75
:101240005F5E5E5D5D5C5C5B5B5A5A5959585857EE
:101250005756565555555454535352525251515056
:1012600050504F4F4F4E4E4D4D4D4C4C4C4B4B4BA9
:101270004A4A4A49494948484847474747464646EF
:10128000454545444444444343434342424242412A
:101290004141002B26D4770021D01CB54FEA3707F7
:1012A00003B44FF010004FF010014FF000000FBCDE
:1012B000BDE810400BF1010BBBF1010F08BF5FEA65
:1012C000170722BF12F1010211F101014FF0004195
:1012D00043F1000300F0004043EA00007047F9D3F7
:1012E0005708DAE746EA064613F1400F4FEA16467A
:1012F0001FDD13F1200FDFBF16430A460021203304
:101300005B42C8D0C3F1200746EA064602FA07F757
:101310004FEA164646EA0706C3F1200722FA03F20F
:1013200001FA07F721FA03F14FF0000342EA07023E
:10133000B1E746EA020646EA06464FEA164646EA9C
:101340000106BCBF46EA0646360C4FF000034FF0DC
:1013500000024FF000019EE72DE9C048934630B4EB
:1013600091E8380007C831EA400C48BF34EA430C22
:1013700003D5FFF7F2FDFFF78CFFF0BCBDE8008856
:101380002DE9C048934630B491E8380007C810F002
:10139000804F08BF13F0804F03D100F005F8FFF72E
:1013A00078FFF0BCBDE8008820F07F4780EA0300AA
:1013B00023F07F4C07EB0C03A3F57C5300F00040B7
:1013C000A3F1FE0392F0000F00F0B38095F0000F40
:1013D00000F077802DE901494FEA11404FEA1446A9
:1013E00021EA004800FB06FC24EA064708FB06F653
:1013F00007FB08F800FB07F718EB06484CEB164C08
:101400004FEA124B18EB07484FEA15464CEB1740D2
:1014100022EA0B4E0BFB06FC25EA06470EFB06F6FE
:1014200007FB0EFE0BFB07F71EEB064E4CEB164CB4
:101430004FF000061EEB074E4CEB174B18EB0B085A
:1014400040F1000018EB0E0B58EB000840F10000D3
:101450008F1A4FF000013CBFC943661B14BFB5EBA8
:10146000040C00213CBFC943F61B4FEA17444EEA67
:101470008E0E27EA04454FEA1C4704FB07622CEA5C
:10148000074C05FB07F70CFB05F604FB0CFC16EB01
:10149000074642EB174216EB0C4642EB1C421BEB95
:1014A000060658EB0202414146EA9E0601D5BDE818
:1014B0000189B619524141EB0101A3F10103BDE8D5
:1014C00001894FEA14454FEA114724EA054621EA0B
:1014D000074C05FB07F406FB07F70CFB06F105FBC1
:1014E0000CFC11EB074144EB17444FEA124711EB98
:1014F0000C4144EB1C4422EA074C05FB07F206FBB7
:1015000007F70CFB06F605FB0CFC16EB074642EB57
:10151000174216EB0C4642EB1C456A1854F10001C9
:1015200048BF7047B619524141EB0101A3F10103D5
:10153000704795F0000F37D04FEA11424FEA144739
:1015400021EA024624EA074C02FB07F106FB07F7F3
:101550000CFB06F402FB0CFC14EB074441EB1741B7
:101560004FEA154714EB0C4441EB1C4125EA074CAC
:1015700002FB07F506FB07F70CFB06F602FB0CFC6B
:1015800016EB074645EB174516EB0C4645EB1C42A0
:10159000121951F1000148BF7047B619524141EB91
:1015A0000101A3F1010370474FEA14454FEA1147C7
:1015B00024EA054621EA074C05FB07F106FB07F77D
:1015C0000CFB06F24FF0000605FB0CFC12EB074289
:1015D00041EB174112EB0C4251EB1C4148BF7047E5
:1015E000921841EB0101A3F10103704721B1826818
:1015F00042F00102826003E0826822F00102826010
:10160000704700000021084A1168084A1140D0E9DB
:1016100000231A4383681A43C3681A431143044AD8
:10162000C2F804137047000004230140E030FCFFBF
:10163000002001400146C86C80B27047024600207D
:1016400013680B400BB1012000E000207047704789
:1016500030B50246002000235068104C20400D7920
:101660000C6844EA05242043506090680C4C2040EC
:10167000D1E903542C438D682C434D7944EA450449
:1016800020439060D06A20F470000C7D641EE4B2A8
:10169000234340EA0350D06230BD0000FFFEFFFC50
:1016A000FDF7FFC0F0B504460D4600200021092DCE
:1016B00011DDE068A5F10A0606EB4607072606FAE3
:1016C00007F18843A5F10A0606EB460603FA06F180
:1016D0000843E0600CE0206905EB4507072606FAA1
:1016E00007F1884305EB450603FA06F1084320613C
:1016F000072A0FDA606B561E06EB86071F2606FACE
:1017000007F18843561E06EB860605FA06F10843E4
:10171000606322E00D2A0FDA206BD61F06EB8607E6
:101720001F2606FA07F18843D61F06EB860605FA40
:1017300006F10843206310E0E06AA2F10D0606EB13
:1017400086071F2606FA07F18843A2F10D0606EB6D
:10175000860605FA06F10843E062F0BD816841F0B3
:1017600080418160704700000149086070470000B7
:101770000C3C024070B504460A460026092502B911
:1017800009E0012A01D1160205E0022A01D1160260
:1017900001E04FF4407600F09FF80546092D28D16E
:1017A0001548006820F44070134908600846006836
:1017B000304308600846006820F0F80008600846DA
:1017C000006844F0020108430B49086008460068BD
:1017D00040F48030086000F07FF805460648006855
:1017E00020F00200044908600846006820F0F80074
:1017F0000860284670BD0000103C024009201349D3
:10180000096801F48031B1F5803F01D101201CE06D
:101810000E49096801F0100109B1062015E00B49D5
:10182000096801F4807109B102200EE007490968D6
:1018300001F0E00109B1072007E00449096801F05F
:10184000020109B1082000E0092070470C3C024069
:101850000348006840F000400149086070470000FC
:10186000103C024030B502460C46092500F034F821
:101870000546092D19D10E48006820F440700C4926
:1018800008600846006840F4007008600846006878
:1018900040F001000860146000F01EF8054604489E
:1018A000006820F0010002490860284630BD0000B1
:1018B000103C02400548006800F0004028B1044890
:1018C00002490C390860034808607047103C024028
:1018D00023016745AB89EFCD08B509200090FFF7DC
:1018E0008DFF009002E0FFF789FF00909DF8000057
:1018F0000128F8D09DF8000008BDF0B50A46002187
:101900000023002400BF3DE0012505FA01F315681E
:1019100005EA03049C4234D105684F000326BE400B
:10192000B543056015794E00B5400668354305603E
:101930001579012D02D01579022D16D185684F0039
:101940000326BE40B543856055794E00B540866894
:1019500035438560456801268E40B543456045683E
:1019600096798E40B6B235434560C5684F00032670
:10197000BE40B543C560D5794E00B540C668354315
:10198000C560491C1029BFD3F0BDF0B50023002469
:101990004D07ED0E02FA05F3CE1000F1200555F8C3
:1019A00026504E07F70E0F26BE40B543CF1000F16C
:1019B000200646F82750CE1000F1200555F8265095
:1019C00045EA0304CE1000F1200545F82640F0BD9D
:1019D0000246002013690B400BB1012000E00020FB
:1019E00070470AB1018300E04183704770B5002160
:1019F00000230F22C4781CB3174C246804F4E0645D
:101A0000C4F5E064C4F30721C1F10404E3B20A4160
:101A100044789C40E1B28478144021430C07210EA5
:101A20000E4C05786155047804F01F050124AC4084
:101A300005786D11AD0005F1E025C5F8004109E01C
:101A4000047804F01F050124AC40054D067876119A
:101A500045F8264070BD00000CED00E000E400E019
:101A600080E100E030B585B00446002519480460E7
:101A70001948008820B91748006840421549086095
:101A800016480088401E1649096848436421B0FB87
:101A9000F1F085B27020ADF800000120ADF8020031
:101AA0000420ADF8040002950220ADF80C000020DF
:101AB000ADF80E004FF48070ADF810000020ADF8C6
:101AC00012000120074908706946074800F0E6FA4D
:101AD00005B030BDDC120020D8120020DA12002040
:101AE000E0120020E4120020000001401CB501219A
:101AF000084600F061F84FF4A060009002208DF8D5
:101B0000040003208DF8050000208DF80600012058
:101B10008DF8070069460748FFF7EFFE012208210C
:101B20000448FFF732FF01220A210248FFF72DFF88
:101B30001CBD00000000024010B50121064800F065
:101B400078FA0121044800F080FA012204210248B9
:101B500000F09BFA10BD0000000001407FB5054673
:101B60000C46681E124908800121084600F044F81E
:101B70001B208DF80C0000208DF80D0001208DF841
:101B80000E008DF80F0003A8FFF730FFADF80040FE
:101B90000020ADF802000648008801900020ADF852
:101BA00008008DF80A006946024800F0B5FA7FBDCA
:101BB000DA1200200000014029B1064A12680243EF
:101BC000044B1A6004E0034A12688243014B1A6016
:101BD000704700003038024029B1064A12680243BB
:101BE000044B1A6004E0034A12688243014B1A60F6
:101BF000704700004038024029B1064A126802438B
:101C0000044B1A6004E0034A12688243014B1A60D5
:101C100070470000443802402DE9F04100210023C4
:101C200000240226002502220227DFF8A4C1DCF8E6
:101C300000C00CF00C0131B1042909D008290CD0E6
:101C40000C297CD148E0DFF88CC1C0F800C089E0E5
:101C5000DFF884C1C0F800C084E0DFF874C1ACF1E3
:101C6000040CDCF800C0CCF38055DFF864C1ACF1A3
:101C7000040CDCF800C00CF03F0275B1DFF858C16D
:101C8000BCFBF2FCDFF84881A8F10408D8F800801A
:101C9000C8F388180CFB08F40DE0DFF838C1BCFB72
:101CA000F2FCDFF82C81A8F10408D8F80080C8F312
:101CB00088180CFB08F4DFF818C1ACF1040CDCF850
:101CC00000C0CCF3014C0CF1010C4FEA4C06B4FB04
:101CD000F6FCC0F800C045E0DFF8F4C0ACF1040C3D
:101CE000DCF800C0CCF38055DFF8E4C0ACF1040CA4
:101CF000DCF800C00CF03F0275B1DFF8DCC0BCFBC3
:101D0000F2FCDFF8CC80A8F10408D8F80080C8F312
:101D100088180CFB08F40DE0DFF8B8C0BCFBF2FC3F
:101D2000DFF8AC80A8F10408D8F80080C8F3881860
:101D30000CFB08F4DFF898C0ACF1040C00E00CE0F8
:101D4000DCF800C0CCF3027C0CF1010C4FEA4C072C
:101D5000B4FBF7FCC0F800C004E0DFF878C0C0F8BE
:101D600000C000BF00BFDFF868C0DCF800C00CF0A6
:101D7000F0010909DFF864C01CF80130D0F800C098
:101D80002CFA03FCC0F804C0DFF844C0DCF800C043
:101D90000CF4E051890ADFF844C01CF80130D0F897
:101DA00004C02CFA03FCC0F808C0DFF824C0DCF83B
:101DB00000C00CF46041490BDFF820C01CF8013072
:101DC000D0F804C02CFA03FCC0F80CC0BDE8F081C8
:101DD000083802400024F40000127A0000000020BD
:101DE0000CB50020019000903448006840F4803029
:101DF0003249086000BF3148006800F400300090AC
:101E00000198401C0190009818B90198B0F5A04FB6
:101E1000F1D12A48006800F4003010B10120009090
:101E200001E0002000900098012846D1234840306E
:101E3000006840F080502149403108602048006827
:101E400040F440401E4908601C48083000681B49A7
:101E5000083108600846006840F400400860084601
:101E6000006840F4A05008601648091F0860081F69
:101E7000006840F08070091F086000BF0F480068CC
:101E800000F000700028F9D040F205700E4908609B
:101E90000A480830006820F003000849083108604B
:101EA0000846006840F00200086000BF03480830A0
:101EB000006800F00C000828F8D10CBD0038024082
:101EC0000070004008644127003C024010B51548EE
:101ED000006840F47000134908601348006840F03F
:101EE00001001149086000200F49083108600E48C0
:101EF00000680E4908400C4908600D48091D08603B
:101F0000081F006820F48020091F0860002006498F
:101F10000C310860FFF764FF4FF000600149803921
:101F2000086010BD88ED00E000380240FFFFF6FEBB
:101F300010300024704700007FB505460C46012193
:101F40000220FFF749FE1D208DF80C0000208DF8BF
:101F50000D008DF80E0001208DF80F0003A8FFF78B
:101F600045FD0020ADF80800ADF802000195ADF880
:101F700000406946014800F0CFF87FBD00040040F2
:101F800010B501210E4800F06FF8B8B10D48007887
:101F9000012802D100F0B6FD0CE00B4800780128C2
:101FA00002D101F071F805E008480078012801D15C
:101FB00001F03AFE0121024800F038F810BD00009F
:101FC000000400409C1200209D1200209E12002060
:101FD0007FB505460C4601210220FFF7FDFD1D20BF
:101FE0008DF80C0000208DF80D008DF80E000120FA
:101FF0008DF80F0003A8FFF7F9FC0020ADF80800EA
:10200000ADF802000195ADF800406946064800F0C1
:1020100083F80121044800F00CF80122114602481F
:1020200000F033F87FBD000000040040CA43028284
:10203000704721B1028842F00102028004E0028868
:102040004FF6FE731A400280704731B1B0F8442059
:1020500042F40042A0F8442005E0B0F84420C2F366
:102060000E02A0F84420704730B50246002000233D
:102070000024158A05EA0103958905EA010413B1D4
:102080000CB1012000E0002030BD1AB183890B4360
:10209000838102E083898B438381704770B500247C
:1020A00000220023058C4FF6FE7635400584028C15
:1020B0008388048B4FF68F752C40B51E2C400D88FD
:1020C0002C43751E2A408D892A434D882A43104D82
:1020D000A84202D00F4DA84213D14FF6F7752A40FF
:1020E000CD892A434FF6FB752A408D882A434FF647
:1020F000FF652B404FF6FF552B400D8A2B434D8A31
:102100002B43838004838D684563028470BD000087
:10211000000001400004014000220288184B984250
:102120000ED0184B98420BD0B0F1804F08D0164B10
:10213000984205D0154B984202D0154B984204D1D5
:102140004FF68F731A404B881A43124B984207D0B0
:10215000114B984204D04FF6FF431A400B891A43A3
:1021600002804B68C3620B880385054B984202D0FE
:10217000044B984201D18B7A0386012383827047F6
:10218000000001400004014000040040000800403D
:10219000000C0040001000400014004010B540F258
:1021A0002551194800F064F8012808D1164800F0BC
:1021B00019F9164908700846007800F0DDFD40F274
:1021C0002661114800F054F801281BD140F2266125
:1021D0000D4800F025F80E4800780E49097888422D
:1021E0000DD00B4802780078401C094B187002F0A3
:1021F0007F00094A115C044800F0F9F802E0002071
:102200000649086010BD0000004800409012002000
:102210007C1200207D120020181300208412002060
:1022200010B50022002340F66A14A14200D100BF7D
:102230000A1201249440A3B2DC43048010BD21B1F2
:10224000828942F40052828104E082894DF6FF7354
:102250001A408281704702460020B1F5007F00D10C
:1022600000BF13880B400BB1012000E00020704735
:1022700070B50246002400230025002040F66A16AF
:10228000B14200D100BFC1F3421501F01F03012686
:1022900006FA03F3012D02D19689334006E0022DA0
:1022A00002D1168A334001E0968A33400C1201268F
:1022B00006FA04F41688344013B10CB1012000E092
:1022C000002070BDF0B50346002400260025002044
:1022D00040F66A17B94200D100BF1846C1F3421454
:1022E00001F01F06012707FA06F5012C01D10C3079
:1022F00004E0022C01D1103000E014301AB107685C
:102300002F43076002E00768AF430760F0BD00009D
:102310002DE9FF4705460E460024A14600BFA04612
:10232000B08900B100BF2C8A24F44054F0880443E3
:102330002C82AC8941F20C608443B0883189084317
:10234000718908430443AC81AC8A24F44074B08999
:102350000443AC826846FFF75FFC2048854202D008
:102360001F48854202D1DDF80C9001E0DDF80890AD
:10237000A88900F4004040B109EBC90000EB091046
:1023800031684900B0FBF1F707E009EBC90000EB49
:10239000091031688900B0FBF1F76420B7FBF0F059
:1023A00004012009642101FB1078A88900F4004091
:1023B00040B1322000EBC800B0FBF1F000F00700A4
:1023C000044308E0322000EB08106421B0FBF1F078
:1023D00000F00F0004432C81BDE8FF87001001408E
:1023E0000014014001468888C0F308007047C1F31B
:1023F000080282807047000010B50446A1B206486A
:10240000FFF7F5FF00BF40210348FFF724FF002836
:10241000F9D0204610BD00000048004010B588B03B
:10242000044601218804FFF7D7FB01210820FFF7AC
:10243000C3FB4FF44070069002208DF81C00002072
:102440008DF81E008DF81F0002208DF81D0006A9D2
:102450002148FFF752FA072208211F48FFF795FA93
:10246000072209211C48FFF790FA02940020ADF8DA
:102470000C00ADF80E00ADF81000ADF814000C2003
:10248000ADF8120002A91548FFF742FF40F226619D
:102490001248FFF7C5FE01211048FFF7D0FE0122C8
:1024A00040F225510D48FFF70DFF012240F2266151
:1024B0000A48FFF707FF27208DF8040000208DF859
:1024C00005008DF8060001208DF8070001A8FFF730
:1024D0008DFA08B010BD0000000C0240004800401A
:1024E00003B401984100009850EAC12018BF0420AD
:1024F0004A0D18BF40F0010040F2FF72B2EB515F8D
:1025000008BF40F00200012808BF052002B0704754
:1025100030380A2801D2012070470020704700009F
:1025200010B5094800680F2803DD08A0FDF7F2FE8A
:1025300010BD00F03AF800F05FF8034801680B485E
:1025400000F016F800BFF3E7081300204552524F81
:102550003A204348414E4E454C206E616F206578CD
:10256000697374656E74650D0A00000000200140F7
:102570002DE9F04105460C46204600F06BFB06466F
:10258000204600F059FB0746304600F0FDFF0023CF
:1025900003223946304600F0D9FFE1B20023012280
:1025A0002846FFF77FF8BDE8F0811FB500200090B6
:1025B0000190029003906846FFF724F81FBD10B504
:1025C00086B0044601210802FFF716FB00200090A8
:1025D0008DF804008DF8050002900390049001200E
:1025E0008DF8140069462046FFF732F80121204695
:1025F000FEF7FCFF06B010BD00B587B012208DF8C5
:10260000000001208DF803000F208DF801008DF8E7
:1026100002006846FFF7EAF901210802FFF7ECFA29
:10262000002001908DF8080001208DF8090000209D
:1026300003900490059001208DF8180001A902482C
:10264000FFF706F807B000BD0020014010B50446B2
:102650002046FFF783F800BF02212046FEF7EEFF79
:102660000028F9D02046FEF7E5FF10BD10B5012186
:102670000B48FEF7BBFF0A48FFF770F800BF0221C6
:102680000748FEF7DBFF0028F9D001210548FFF7D6
:10269000D0FC012211460348FFF7F7FC10BD0000F3
:1026A000002001400004004010B500210748FEF75B
:1026B0009DFF00210648FFF7BCFC002201210448D1
:1026C000FFF7E3FC03A0FDF725FE10BD002001404D
:1026D0000004004073746F700D0A000010B500F024
:1026E0005BFF10BD704710B500F0C4FF10BD0000C7
:1026F00010B50249086801F09BF910BD08130020CD
:1027000000200149086070479412002010B50C4861
:102710000068002803DB0A480068012803DD09A0DF
:10272000FDF7F8FD0BE00648006810B900F034FE34
:1027300005E003480068012801D100F0E5FD10BD67
:10274000081300206D6F646F20646573636F6E689B
:10275000656369646F00000010B52DED088B9FED77
:102760004C0AB0EE409A9FED4A0AB0EE408A9FEDC7
:10277000480AF0EE408A9FED460AF0EE409A9FED3F
:10278000440AB0EE40AA9FED420AF0EE40AA00F0E3
:102790009FF8F0EE40AA3F4890ED000A30EE6A0A3A
:1027A000B0EE408A3C48007800286AD038EE880AAB
:1027B0003A48D0ED000A30EE200AF0EE408A90ED63
:1027C000000A38EE400A3648D0ED000A20EE200A12
:1027D0003448D0ED000A344890ED001A00EE810A2A
:1027E000F0EE409A2D4880ED008A2F48C0ED009A07
:1027F0002E48D0ED000AB0EE680A00EE880A30EEEE
:10280000290AB0EE40AA2A4890ED000A30EE0A0AE2
:10281000B0EE409A274890ED000AB4EEC09AF1EE6F
:1028200010FA0DDD90ED000AB0EE409A38EEC80ABD
:102830001A48D0ED000A30EE600AF0EE408A14E04B
:102840001D4890ED000AB4EEC09AF1EE10FA0CD2D9
:1028500090ED000AB0EE409A38EEC80A0F48D0ED6D
:10286000000A30EE600AF0EE408A19EE100A01F01C
:10287000ABFD41EC1B0B53EC1B2B10A0FDF74AFDED
:1028800002E0064880ED008ABDEC088B10BD000018
:1028900000000000B41200209B120020BC12002097
:1028A000C4120020C8120020C0120020A81200206C
:1028B000D4120020CC120020D012002076616C6F60
:1028C0007220646520753A2025660D0A000000001C
:1028D00010B52DED0C8B9FED280AF0EE408A9FED90
:1028E000270AF0EE409A9FED260AB0EE409A9FED3F
:1028F000240AB0EE408A2348FEF79CFE00EE100A40
:10290000B8EE400AB0EE409AB0EE000A29EE000A96
:1029100010EE101A084601F057FD41EC1D0B9FED1B
:102920001A0B53EC102B01F051FC41EC1B0B29EE60
:10293000280A10EE101A084601F046FD41EC1C0B67
:1029400053EC1B2B01F0D6FA41EC1A0B01F0A0FA64
:1029500008EE100AB4EEE88AF1EE10FA04DCB4EEE8
:10296000E98AF1EE10FA04D29FED050ABDEC0C8B5A
:1029700010BDB0EE480AF9E766665143666651C37A
:102980000000000000200140000000000000E03FC7
:1029900070B504460E4600252078442828D008DC6F
:1029A0002B2820D02D2822D02E2822D042283AD1E0
:1029B0002BE0482806D06D2832D073282FD07528F8
:1029C00031D12EE001200BE02D01215C392903DDFE
:1029D000215C37390D4402E0215C30390D44401C44
:1029E000B042F1DB25E001201349088000BF00BFA1
:1029F00000BF012006E005EB85014D00215C303968
:102A00000D44401CB042F6DB13E0012004E06D00F1
:102A1000215C30390D44401CB042F8DB09E000BFB6
:102A200000BF257805E005A0FDF774FC4FF0FF30EE
:102A300070BD00BF2846FBE7D81200204552524F18
:102A40003A20436F6E76657273616F206461204235
:102A50006173652E0D0A000010B50E48006800284D
:102A600003DB0C480068642800DD10BD09490868D4
:102A7000FEF7F8FFFFF760F8002000F085FD012267
:102A80000921002000F04AFD00200349088000BF12
:102A9000EBE7000008130020D812002070B50446B0
:102AA0000D460122AA4091B2034A131503FB0420EC
:102AB000FEF78EFF70BD0000000002402DE9F041DE
:102AC00004460D461646F2B20123AB4099B2044BC0
:102AD0001F1507FB0430FEF784FFBDE8F0810000FE
:102AE0000000024010B5FEF7B3FE10BD10B5FEF7B2
:102AF000E1FEF320FEF738FE02213820FEF73AFE11
:102B000010BD000010B501200449087000200449E0
:102B100008700449087000F07DFB10BD9C12002075
:102B20009D1200209E12002000200149087070476D
:102B30009A12002001200149087070479A12002063
:102B400070B504460D462046FFF756FC204670BD82
:102B500010B52DED048B9FED110AB0EE408A1048A0
:102B600090ED010AB8EEC00A20EE080AB0EE408AE5
:102B700090ED000AB8EEC00A30EE080A094880ED70
:102B8000000A006801F020FC41EC190B53EC192BF2
:102B900005A0FDF7BFFBBDEC048B10BDCDCCCC3D3B
:102BA00008130020A412002056616C6F7220646527
:102BB0002054656D703D2025660D0A007FB5002507
:102BC000002603242CE01948005D202806D0174871
:102BD000005D18B11548005D2E281BD129466846B6
:102BE000FFF7D6FE124941F82600084650F82600A5
:102BF000401C18B94FF0FF3004B070BD761C0025A2
:102C00000A48005D2E280AD10848005D0DF805002D
:102C10006D1C04E00548005D0DF805006D1C641C8A
:102C2000044800688442CEDB3046E5E7EC12002021
:102C3000081300201400002010B590B00446402274
:102C400003496846FDF7C6FC5DF8240010B010BDCE
:102C50000445000810B590B0044640220349684678
:102C6000FDF7B8FC5DF8240010B010BDC4440008A6
:102C70007CB5002108E01748405C0DF80100491CB4
:102C8000052901D1881F7CBD1248405C202803D053
:102C90001048405C0028EED1002215E000230020FF
:102CA0000BE01DF80040C2EBC2050B4E06EB05150C
:102CB0002D5CAC4200D15B1C401C8842F1DB8B4296
:102CC00001D110B2DFE7521C2A2AE7DB4FF0FF30B8
:102CD000D9E70000EC1200201800002070B50A258A
:102CE0002C461A4801681AA0FDF714FBC5F12A000A
:102CF00016490968884201DA2A2402E0134800686C
:102D0000044416E011480068C0EBC000164B03EB0A
:102D1000001000F10C020D480068C0EBC00003EB8E
:102D2000001112A0FDF7F6FA08480068401C074998
:102D3000086006480068A042E4DB044800682A28CE
:102D400002DB00200149086070BD000078120020FD
:102D500043656E74726F20446520416A7564613A00
:102D600025640D0A00000000180000202573092DBD
:102D70000925730D0A00000010B50446082C1DD06B
:102D80000D2C02D01B2C35D12AE00D20FFF734FB8F
:102D90000A20FFF731FB00201E491F4A12688854A1
:102DA0001D480068401C1C49086000F049FB3E209B
:102DB000FFF722FB00201849086028E01648006849
:102DC00068B115480068401E134908600820FFF7E5
:102DD00013FB2020FFF710FB0820FFF70DFB16E088
:102DE00000200D4908600C20FFF706FB3E20FFF78E
:102DF00003FB0CE02046FFF7FFFA06480649096886
:102E0000445405480068401C0349086000BF00BFE7
:102E100010BD0000EC1200201400002010B52DEDB4
:102E2000048B9FED110AB0EE408A104890ED010A24
:102E3000B8EEC00A20EE080AB0EE408A90ED000A13
:102E4000B8EEC00A30EE080A094880ED000A0068B2
:102E500001F0BAFA41EC190B53EC192B05A0FDF760
:102E600059FABDEC048B10BDCDCCCC3D081300202D
:102E7000B012002056616C6F722064652054656D3D
:102E8000703D2025660D0A0010B52DED048B9FEDD9
:102E9000110AB0EE408A104890ED010AB8EEC00A5F
:102EA00020EE080AB0EE408A90ED000AB8EEC00AA3
:102EB00030EE080A094880ED000A006801F084FA43
:102EC00041EC190B53EC192B05A0FDF723FABDECCF
:102ED000048B10BDCDCCCC3D08130020C4120020C3
:102EE00056616C6F722064652054656D703D2025BD
:102EF000660D0A0010B52DED048B9FED110AB0EEA2
:102F0000408A104890ED010AB8EEC00A20EE080A87
:102F1000B0EE408A90ED000AB8EEC00A30EE080A22
:102F2000094880ED000A006801F04EFA41EC190BE7
:102F300053EC192B05A0FDF7EDF9BDEC048B10BD8A
:102F4000CDCCCC3D08130020C812002056616C6F18
:102F5000722064652054656D703D2025660D0A0061
:102F600010B52DED048B9FED110AB0EE408A10488C
:102F700090ED010AB8EEC00A20EE080AB0EE408AD1
:102F800090ED000AB8EEC00A30EE080A094880ED5C
:102F9000000A006801F018FA41EC190B53EC192BE8
:102FA00005A0FDF7B7F9BDEC048B10BDCDCCCC3D31
:102FB00008130020AC12002056616C6F722064650B
:102FC0002054656D703D2025660D0A0010B52DED6D
:102FD000048B9FED110AB0EE408A104890ED010A73
:102FE000B8EEC00A20EE080AB0EE408A90ED000A62
:102FF000B8EEC00A30EE080A094880ED000A006801
:1030000001F0E2F941EC190B53EC192B05A0FDF787
:1030100081F9BDEC048B10BDCDCCCC3D0813002054
:10302000A812002056616C6F722064652054656D93
:10303000703D2025660D0A0010B50A48B0F9000061
:10304000401C50B10749B1F90010C1EBC101064A5B
:1030500002EB01118868804702E004A0FDF75AF9ED
:1030600010BD000012000020180000204552524FF1
:103070003A20436F6D616E646F20496E64697370AE
:103080006F6E6976656C2E0010B5012004490870DA
:103090000020044908700449087000F007F810BDCA
:1030A0009D1200209C1200209E12002010B52DEDD4
:1030B000088B9FED480AB0EE409A9FED460AB0EEAD
:1030C000408A9FED440AF0EE408A9FED420AF0EEFE
:1030D000409A9FED400AB0EE40AAFFF7F9FBB0EE30
:1030E00040AA3D4890ED000A30EE4A0AB0EE408A10
:1030F0003A480078002866D038EE880A3848D0ED83
:10310000000A30EE200AF0EE408A90ED000A38EE18
:10311000400A3448D0ED000A20EE200A3248D0EDB3
:10312000000A324890ED001A00EE810AF0EE409A53
:103130002F4890ED000A20EE080A2E48D0ED000A34
:1031400000EEA80A30EE290AB0EE409A244880ED3D
:10315000008A2648C0ED009A274890ED000AB4EE98
:10316000C09AF1EE10FA0DDD90ED000AB0EE409A33
:1031700038EEC80A1A48D0ED000A30EE600AF0EEC8
:10318000408A14E01D4890ED000AB4EEC09AF1EEBA
:1031900010FA0CD290ED000AB0EE409A38EEC80A50
:1031A0000F48D0ED000A30EE600AF0EE408A19EECA
:1031B000100A01F009F941EC1B0B53EC1B2B10A07A
:1031C000FDF7A8F802E0064880ED008ABDEC088B08
:1031D00010BD000000000000B41200209B1200206F
:1031E000BC120020C4120020C8120020C01200200F
:1031F000A8120020AC120020CC120020D012002017
:1032000076616C6F7220646520753A2025660D0A20
:103210000000000010B52DED068B9FED2E0A10EE7C
:10322000104A9FED2C0AB0EE408A9FED2A0AF0EE7C
:10323000408A9FED280AB0EE409A9FED260AF0EEF4
:10324000409AFFF745FBF0EE409A234890ED000AC4
:1032500030EE690AB0EE408A38EE880A1F48D0ED99
:10326000000A30EE200AF0EE408A90ED000A38EEB7
:10327000400A1B48D0ED000A20EE200A1948D0ED84
:10328000000A194890ED001A00EE810AB0EE409A4B
:10329000164890ED000A20EE080A1548D0ED000A05
:1032A00000EEA80A30EE090A10EE104A0B4880ED35
:1032B000008A0D4880ED009A204601F085F841EC27
:1032C0001A0B53EC1A2B0BA0FDF724F8BDEC068B60
:1032D00010BD000000000000B4120020BC1200204D
:1032E000C4120020C8120020C0120020A812002022
:1032F000AC12002076616C6F7220646520753A20F4
:1033000025660D0A00000000012001490870704781
:103310009B1200204FF41650FFF780F802A0FCF734
:10332000F9FF00BFFEE700005465726D696E616CC5
:103330000D0A3E0038B51348006800F100541148EA
:10334000806800F1005518E0286800902B4621465F
:103350000DA02268FCF7DEFF206828602868009036
:103360002B46214608A02268FCF7D4FF0548406898
:10337000401E04494860241D2D1D02484068002855
:10338000E2D138BD0813002025583D25642C25586E
:103390003D25640D0A0000000020014908707047B7
:1033A0009B12002070B500260B48006800F1005405
:1033B00009484568214609A0FCF7ACFF06E02668ED
:1033C00031460AA0FCF7A6FF641C6D1E002DF6D145
:1033D00007A0FCF79FFF70BD08130020204D656D0E
:1033E0006F7269612025583D0000000025642C00A3
:1033F0000D0A000010B50F48006800F1005414E0F9
:1034000021460DA02268FCF785FF0A4880682060ED
:10341000214609A02268FCF77DFF06484068401E4F
:10342000044948602068401C206002484068002829
:10343000E6D110BD0813002025583D25640D0A0073
:1034400070B5FFF715FC0446601C18B91BA0FCF70B
:1034500061FF70BDC4EBC400204901EB0010B0F95E
:10346000060000281CDDFFF7A9FB05B2C4EBC40071
:103470001A4901EB0010B0F90600A84203DD18A0BC
:10348000FCF748FFE5E7C4EBC400144901EB00106A
:10349000B0F90600A84203DA18A0FCF73BFFD8E712
:1034A000C4EBC4010D4A02EB0111886880470A2C65
:1034B00001D01948048000BFCBE700004552524FAD
:1034C0003A20436F6D616E646F20446573636F6E65
:1034D00068656369646F2E0D0A0000001800002003
:1034E0004552524F3A204172677320496E73756698
:1034F000696369656E7465732E0D0A004552524FFB
:103500003A2044656D61736961646F73204172672D
:10351000732E0D0A00000000120000207CB5044646
:103520000D4616460120A84000908DF8046000204A
:103530008DF807008DF8060003490A1502FB0410F8
:103540006946FEF7DAF97CBD000002402DE9FC4136
:1035500004460D4616461F460120A84000908DF8EF
:1035600004608DF8077000208DF806008DF80500C6
:1035700004490A1502FB04106946FEF7BEF9BDE8CE
:10358000FC8100000000024010B50446012101FA50
:1035900004F0FEF711FB10BD10B52DED028B2B488A
:1035A000007888B32A48046811E02A4800EB8400B8
:1035B00090ED000A10EE101A084600F005FF41ECED
:1035C000180B53EC182B24A0FCF7A4FE641C244811
:1035D00000688442E9DB002411E01E4800EB84000F
:1035E00090ED000A10EE101A084600F0EDFE41ECD6
:1035F000180B53EC182B18A0FCF78CFE641C144815
:1036000000688442E9DB1BE0FFE71148046806E03C
:10361000144830F8141014A0FCF77CFE641C104809
:1036200000688442F4DB002406E00E4830F81410F1
:103630000DA0FCF76FFE641C054800688442F4DBB3
:103640000BA0FCF767FEBDEC028B10BD9A120020A8
:10365000941200209814002025660D0A0000000036
:10366000A01200209813002025640D0A000000001D
:103670000D0A000010B52DED068B9FED370AB0EE58
:10368000408A9FED360AF0EE408A9FED350AB0EE93
:10369000409A3448046827E03348007838B133480A
:1036A00000EB840090ED000AB0EE408A08E030485C
:1036B00030F8140000EE100AB8EE400AB0EE408A6E
:1036C00028EE090AB0EE408A88EE280AB0EE408A59
:1036D00018EE100A00F078FE41EC1A0B53EC1A2B8E
:1036E00024A0FCF717FE641C244800688442D3DB46
:1036F000002427E01C48007838B11C4800EB840007
:1037000090ED000AB0EE408A08E0194830F8140045
:1037100000EE100AB8EE400AB0EE408A28EE090A20
:10372000B0EE408A88EE280AB0EE408A18EE100A01
:1037300000F04AFE41EC1A0B53EC1A2B0DA0FCF7DB
:10374000E9FD641C074800688442D3DB0CA0FCF749
:10375000E1FDBDEC068B10BD0000000000F07F45D0
:1037600033335340941200209A1200209814002002
:103770009813002025660D0A00000000A01200200A
:103780000D0A000070B52DED048B1C4800680F2851
:1037900005DD1BA0FCF7BEFDBDEC048B70BDFEF784
:1037A00004FF1F48FEF70BFF144801681C48FEF792
:1037B000DFFE1B48FEF74AFF0546284600F0F2FCF4
:1037C00041EC190B9FED170B53EC102B00F0FEFC96
:1037D00041EC180B00F05CFB0446294613A0FCF7F3
:1037E00099FD204600F0F0FD41EC180B53EC182B2E
:1037F00013A0FCF78FFD00BFCEE7000008130020E8
:103800004552524F3A204348414E4E454C206E613E
:103810006F206578697374656E74650D0A00000029
:10382000002001404E062E2C0B684A3F56616C6FFB
:103830007220646F20307825303358200D0A000044
:1038400054656E73616F203D2025662056200D0A59
:103850000000000010B5154800680A2803DD14A018
:10386000FCF758FD10BD114840680F2803DD17A074
:10387000FCF750FDF6E70D490868FFF785FE0B4A97
:10388000516810680022FFF749FE084A5168106825
:10389000FFF704F9044605484268006800F1410159
:1038A000234611A0FCF736FD00BFDBE7081300201C
:1038B0004552524F3A20504F52544F206E616F2064
:1038C0006578697374656E74650D0A004552524FD0
:1038D0003A2050494E206E616F2065786973746597
:1038E0006E74650D0A00000056616C6F7220646F83
:1038F0002050696E2025632564203D202578200D09
:103900000A00000070B5002500240AE00949096892
:10391000081900F019F80546294607A0FCF7FAFC3B
:10392000641C04484068A042F0DC06A0FCF7F2FCEE
:1039300070BD0000081300203078253038782C2026
:10394000000000000D0A000001460020024A02EBC0
:1039500081010868704700000000060870B507483C
:10396000006800F10054214605A0FCF7D3FC25684F
:10397000294607A0FCF7CEFC70BD0000081300200C
:10398000204D656D6F7269612025643D0000000067
:1039900025640D0A0000000010B51E480068732859
:1039A00008D01C480068752804D01A4800686D28A3
:1039B00000D010BD17484068002800DAF9E732212E
:1039C000C820FEF7CBF8FEF791F81248006873287C
:1039D0000AD1104949684FF4FA6201FB02F04CF237
:1039E0005031FEF7F5FA13E00A4800686D2809D156
:1039F0000849496801EB8101880041F28831FEF7EE
:103A0000E7FA05E00349496848003221FEF7E0FA89
:103A100000BFCEE70813002010B5FEF771FEFEF7D9
:103A200025FE01200149087010BD000099120020F8
:103A30000149086070470000A012002010B51B4823
:103A40000068732808D019480068752804D0174802
:103A500000686D2800D010BD14484068002800DAC6
:103A6000F9E71248006873280AD1104949684FF4F1
:103A7000FA6201FB02F04CF25031FEF75DFA13E0FE
:103A80000A4800686D2809D10849496801EB81019D
:103A9000880041F28831FEF74FFA05E00349496892
:103AA00048003221FEF748FA00BFD4E7081300208F
:103AB00010B5FEF725FEFEF7D9FD0120014908707B
:103AC00010BD00009812002010B5054800780128AC
:103AD00004D1FEF7E9FD00200149087010BD000087
:103AE0009912002010B52DED048B9FED110AB0EE58
:103AF000408A104890ED010AB8EEC00A20EE080A8C
:103B0000B0EE408A90ED000AB8EEC00A30EE080A26
:103B1000094880ED000A006800F056FC41EC190BE2
:103B200053EC192B05A0FCF7F5FBBDEC048B10BD85
:103B3000CDCCCC3D08130020D412002056616C6F10
:103B4000722064652054656D703D2025660D0A0065
:103B500010B52DED048B9FED110AB0EE408A104890
:103B600090ED010AB8EEC00A20EE080AB0EE408AD5
:103B700090ED000AB8EEC00A30EE080A094880ED60
:103B8000000A006800F020FC41EC190B53EC192BE3
:103B900005A0FCF7BFFBBDEC048B10BDCDCCCC3D2C
:103BA00008130020CC12002056616C6F72206465EF
:103BB0002054656D703D2025660D0A0010B52DED71
:103BC000048B9FED110AB0EE408A104890ED010A77
:103BD000B8EEC00A20EE080AB0EE408A90ED000A66
:103BE000B8EEC00A30EE080A094880ED000A006805
:103BF00000F0EAFB41EC190B53EC192B05A0FCF784
:103C000089FBBDEC048B10BDCDCCCC3D081300204E
:103C1000D012002056616C6F722064652054656D6F
:103C2000703D2025660D0A0010B50120044908707A
:103C300000200449087004490870FEF78DFD10BD8E
:103C40009E1200209D1200209C12002010B502A0A0
:103C5000FCF760FB10BD000076302E3820677275CF
:103C6000706F203131204C50492D4949204445493D
:103C700020554D323031370D0A00000010B519487B
:103C800000680A2803DD18A0FCF744FB10BD1548A6
:103C900040680F2803DD1CA0FCF73CFBF6E7114849
:103CA0008068012803DD1FA0FCF734FBEEE70D4917
:103CB0000868FFF769FC0B4A516810680122FFF79A
:103CC0002DFC084B9A6859681868FEF7F7FE0548FE
:103CD00083684268006800F141011AA0FCF71AFBF2
:103CE00000BFD3E7081300204552524F3A20504FEF
:103CF00052544F206E616F206578697374656E74DD
:103D0000652E0D0A000000004552524F3A205049DE
:103D10004E206E616F206578697374656E74652ED0
:103D20000D0A00004552524F3A2056616C6F726581
:103D30007320706F73736976657320302D312E0D8B
:103D40000A00000056616C6F7220646F2050696E2B
:103D50002025632564203D202564200D0A000000F5
:103D600070B5FEF7C3FE0446074A5168106800F0BC
:103D700035F80546FEF7B6FE03482A462146036895
:103D800002A0FCF7C7FA70BD0813002025642C259B
:103D9000642C457363726576657520656D20307897
:103DA000253038782E0D0A0010B50948006800F15A
:103DB0000054214607A02268FCF7ACFA044840688A
:103DC0002060214603A02268FCF7A4FA10BD000081
:103DD0000813002025643D25640D0A0070B50446D3
:103DE0000D46044800EB840429462046FDF73AFDC1
:103DF00070BD00000000060810B52DED048B9FED8E
:103E0000110AB0EE408A104890ED010AB8EEC00ADF
:103E100020EE080AB0EE408A90ED000AB8EEC00A23
:103E200030EE080A094880ED000A006800F0CCFA7C
:103E300041EC190B53EC192B05A0FCF76BFABDEC08
:103E4000048B10BDCDCCCC3D08130020B412002053
:103E500056616C6F722064652054656D703D20253D
:103E6000660D0A0010B500290AD00878002807D08E
:103E700005487844FCF7B8FF002801D0002010BDA9
:103E80000248784410BD0000C2070000BA070000D5
:103E900021F00042A2F16052B2F5801F01F0004310
:103EA00028BFD2F17F6C0BD95FEA001C43EAC20243
:103EB00042EB507018BF704728BF20F001007047D8
:103EC000B2F5801FBCBF184670474FEA410C1CF585
:103ED000001F02D2084600F0EDBA70B500F020FADB
:103EE00000000089FFF7F6BF4FF00040A0F580000A
:103EF000704700002DE9C04130B4DFF8A0C23CEAB1
:103F0000111418BF3CEA131400F0EC8081EA030599
:103F10001CEA111444EAD57418BF1CEA131500F00A
:103F2000C780A4EB05044FF0004545EAC12145EAEE
:103F3000C32341EA505143EA525304F17F7499423A
:103F400004F500344FEAC0204FEAC22208BF904275
:103F500000F09C804FEA13650FF24016765D4FEA41
:103F6000134506FB05F7C7F1807706FB07F74FEA15
:103F7000D737A7FB03687642C8F58038A7FB06CE83
:103F800038BFA8F1010807FB08E64FF0000EA6FBBA
:103F9000028CE6FB03CEDCF1000CCEF1004E38BF04
:103FA000AEF1010EA6FB0C584FF000074FF00005D4
:103FB000E6FB0E87A1FB08C6A0FB07CE16EB0E069C
:103FC00045F10005E1FB076515F1E04E7EBFA4F564
:103FD00080345FEA46066D4116F1800745F1000521
:103FE0004FEA17274FEA066647EA0567A6F1DE465D
:103FF000B6F1805F4FEA15251FD9384624F0010C31
:1040000005EBC471BCF1FE6F01EB0C1102D8F0BCE2
:10401000BDE8008124425CBF01F5801E9EEAC47F9A
:1040200002D4F0BCBDE80081244238D4F0BCA1F138
:10403000C041BDE8004100F0C1B94FEAD22242EAD6
:1040400043524FEAD323A7FB02864FEAD02040EA2F
:10405000415007FB03661EEA0E0F4FEAD12105FB14
:10406000026658BFA6EB0056B6EB00564FEA520E5A
:104070004EEAC37E18EB0E0E56EB530EBDD518EB71
:1040800002085E417F1C55F10005B6E74FF480152C
:104090004FF000074FF000064FF00008ADE7F0BC0E
:1040A0004FF0000001F1C04101F00041BDE8008186
:1040B00011EA0C1F0CEA131500D00CE013EA0C1FD8
:1040C00000F025804FF00000F0BC81EA030101F010
:1040D0000041BDE80081F0BCBDE8004181EA030178
:1040E00000F06CB9F0BCBDE8004170B500F018F903
:1040F000097EFC3E00F007B881EA03014FF00000A2
:1041000001F00041704781EA030100F057B9F0BCAB
:10411000BDE800414FF0000021497047FFFDFBF969
:10412000F7F5F4F2F0EEEDEBE9E8E6E4E3E1E0DEEA
:10413000DDDBDAD8D7D5D4D3D1D0CFCDCCCBCAC85C
:10414000C7C6C5C4C2C1C0BFBEBDBCBBBAB9B8B783
:10415000B6B5B4B3B2B1B0AFAEADACABAAA9A8A876
:10416000A7A6A5A4A3A3A2A1A09F9F9E9D9C9C9B44
:104170009A999998979796959594939392919190EF
:104180008F8F8E8E8D8C8C8B8B8A89898888878780
:104190008685858484838382828181800000FF07F5
:1041A0000000F87FB0FA80F310FA03F10AD0C3F1EF
:1041B0001D0303F580634FEA41504FEA035202EBBF
:1041C000D12170474FF0000070470000DFF848C170
:1041D00070B51CEA111E1EBF1CEA13159EEA0C0FD7
:1041E00095EA0C0F00F06F8081EA030423EA4C1378
:1041F0004EEAD47E21EA4C1141F4801143F480133D
:10420000AE44A1FB024CA0FB0365AEF17F7E3619E4
:1042100055EB0C05A1FB034C4CF10003A0FB021C69
:1042200016EB0C06654153F10003094218BF46F036
:10423000010613F4007F0BD14FEA03314FEA05303A
:10424000340341EA155140EA16506FF003020AE0C8
:104250004FEAC3214FEAC520F40241EA555140EA32
:1042600056506FF0020202EB2E4201EB025585EA36
:10427000CE710AD05FEA440C18BF24F0004450F11C
:10428000000041F1000120EAD47040F2FE7C62455A
:1042900000D270BDA84214BF4FF080444FF040449C
:1042A000002E08BF0024BEF1806FA8BFA1F1C0415D
:1042B000BDE8704080F282804FF0000001F1C04103
:1042C00001F0004170479EEA0C0F0CEA131518BF6D
:1042D00095EA0C0F06D04FF0000081EA030E0EF0B5
:1042E000004170BD00F01CF88900013E00F007B8E5
:1042F00000F009B84FEA430C5FEA5C5C08D081EA41
:10430000030100F05BB84FEA410C5FEA5C5CF6D158
:104310004FF00000014970470000FF070000F87FE0
:104320000EF1020E2EF0030E5EF8046B364205D439
:10433000012A43EB030515F5001F12D8012841EBB4
:10434000010C1CF5001F0CD80ED14FEAD17C15F5DD
:10435000001F0CEB4C0C0CF1020C08BF4CEBD37C97
:1043600004E04FF0080C01E04FEAD37C0CEB4C0565
:1043700026FA05F606F00706B6F1040C06D20EEB97
:10438000860CBDE870404CF0010C6047DFE80CF093
:10439000090B02024FF000414FF00000A1F500218F
:1043A00070BD19461046012851EB010418BFD4F521
:1043B000001484BF002001F0004170BD0808A0F582
:1043C00000114FEA3101704743004FEAD30C4FEA26
:1043D0003C0C43401FBF40070CF1605113F0FE4FEF
:1043E00070471CF0006F03D100200CF000417047B3
:1043F0000CF0004343EA507010B540EACC0000F0E6
:104400000EF800BF000000924FEA0001FFF7D6BF90
:104410004FF000414FF00000A1F5002170470EF170
:10442000020E2EF0030E5EF8044B244204D44FEA31
:104430004102B2F17F4F11D84FEA4003B3F17F4FF1
:104440000CD80ED14FEAD07CB2F17F4F0CEB4C0C64
:104450000CF1020C08BF4CEBD17C04E04FF0080CCF
:1044600001E04FEAD17C0CEB4C0324FA03F404F096
:104470000704B4F1040C06D20EEB840CBDE8104026
:104480004CF0010C6047DFE80CF0070802024FF027
:104490000040A0F5800010BD0846420018BFD2F1D0
:1044A000807288BF00F0004010BD4FF04070E1EE18
:1044B000100A7047FF2141EAD050C0057047FCF751
:1044C000EEB9000000000000000000000000000045
:1044D00000000000000000000000000000000000DC
:1044E00000000000010000000100000002000000C8
:1044F00002000000020000000200000002000000B4
:1045000002000000000000000100000002000000A6
:104510000300000004000000050000000600000089
:104520000700000000000000010000000000000083
:104530000100000002000000030000000400000071
:1045400005000000303132333435363738394142D6
:1045500043444546403058003031323334353637E5
:104560003839616263646566403078000400000891
:104570000000000000000002000100001000000028
:1045800002400000000000A0000000000540000004
:10459000000000C8000000000C4000000000409C2B
:1045A00000000000194000000020BCBE0000000018
:1045B00034400000BFC91B8E00000004B54000005D
:1045C000504BCFD06607E2CF010000006C410000E5
:1045D0003E8251AADFEEA73401000000D94200005C
:1045E000DCB5A0E23A301F97FFFFFFFFB4450000A3
:1045F000FD25A0C8E9A3C14FFFFFFFFFFF3F00005B
:104600000000008000000000FF3F0000000000806C
:10461000000000005046000800000020EC120000DE
:104620000002000894490008EC1200200C0A000067
:104630005C0200081C00000043000000F8FFFFFFC0
:104640000C0000000E0000000F0000002E00000013
:10465000412D0102030404250607080943FFFF4317
:104660004D52120213A533000D59084D656D6F723E
:10467000792052656164434D5712038AF5700E57D5
:104680005772697465704A43708A35700559436F73
:1046900070794352491201135D39000E5808526572
:1046A000616420494E54656765723A57701202136F
:1046B000A93D0F5D085772697465714B5244705B78
:1046C0005538E0080E514469676974616C20496E81
:1046D000707574E0397012036B7D3CE069710B52A8
:1046E0004F75714352411201138537280908416EF5
:1046F000616C6F6720E70159435745120213613D12
:10470000380908453250524F4D20E701585A52702F
:104710007B053970095BE07224133930000F5708AC
:1047200052657065746520556C74696D6F723F13C6
:10473000DD2C06600848656C7054564552134D3C9C
:1047400000095D0876657273696F6E4353501202FB
:10475000133D3A0011550853616D706C696E67091D
:10476000506572696F6443414312011321250010A3
:104770005608416E616C6F67096368616E6E656CA7
:104780004B424C707BF12670000C52427566666598
:10479000722053697A6563535213B13A000E580878
:1047A00053616D706C696E670952756E635343AAED
:1047B00019700D514379636CDC41722E2AC9700463
:1047C00060544F5063424613E52608125308427561
:1047D000666665720945787465726E616C737062A5
:1047E000498AE7700B5A496E7062459ADDE00810FD
:1047F0004B6E67696E656572696E6709556E69749F
:1048000078434657120213512B1D0846696CDA0093
:1048100008570957656967687463464E8A35705A48
:104820006F1309547062469A2970691401544352F7
:10483000501202139939000A5C0852616D702050C1
:10484000574D434443120113592A000C5A0844752A
:104850007479204379636C655A4BE013CD2F380887
:104860000847616E686F20110958704A49707A6173
:104870007039110958704A44706B1D2E703911013E
:10488000594B59527013F93D080C59085265666529
:1048900072656E636961E04A46707AF5E039110924
:1048A00058702A446012027A897039110159634D97
:1048B00041130933081154084D6F646F204175741A
:1048C0006F6D617469636F70624D6A997007594DBD
:1048D000616E75616C165553415441120213513B80
:1048E0001C0855200D5A20F10959701A42707ABDE2
:1048F000700A5C4270335F3012022BE53A70290C6B
:10490000015E5446414413052B18160846696C7421
:10491000726F20416363616F2044657269766174D0
:1049200004014D54444C531389302E08446574657A
:104930006B280A6465207361747572610D5A658015
:1049400000093F496E74656772616C3656616C5F31
:104950004B13293C380B08457370656369666963BE
:10496000691810646F2076616C6F7220636F6E73CC
:1049700074616F0144164F4E4F46461201130D27C6
:104980003F08436F6D75746C2C4F4E2F1701BF722B
:044990000100000022
:04000005080002D518
:00000001FF
